{
  "_format": "hh-sol-artifact-1",
  "contractName": "CryptoWallet",
  "sourceName": "contracts/CryptoWallet.sol",
  "abi": [
    {
      "inputs": [],
      "stateMutability": "nonpayable",
      "type": "constructor"
    },
    {
      "inputs": [
        {
          "internalType": "address",
          "name": "owner",
          "type": "address"
        }
      ],
      "name": "OwnableInvalidOwner",
      "type": "error"
    },
    {
      "inputs": [
        {
          "internalType": "address",
          "name": "account",
          "type": "address"
        }
      ],
      "name": "OwnableUnauthorizedAccount",
      "type": "error"
    },
    {
      "anonymous": false,
      "inputs": [
        {
          "indexed": true,
          "internalType": "address",
          "name": "user",
          "type": "address"
        },
        {
          "indexed": false,
          "internalType": "uint256",
          "name": "amount",
          "type": "uint256"
        }
      ],
      "name": "Deposit",
      "type": "event"
    },
    {
      "anonymous": false,
      "inputs": [
        {
          "indexed": true,
          "internalType": "address",
          "name": "previousOwner",
          "type": "address"
        },
        {
          "indexed": true,
          "internalType": "address",
          "name": "newOwner",
          "type": "address"
        }
      ],
      "name": "OwnershipTransferred",
      "type": "event"
    },
    {
      "anonymous": false,
      "inputs": [
        {
          "indexed": true,
          "internalType": "address",
          "name": "user",
          "type": "address"
        },
        {
          "indexed": false,
          "internalType": "uint256",
          "name": "amount",
          "type": "uint256"
        }
      ],
      "name": "Withdraw",
      "type": "event"
    },
    {
      "inputs": [
        {
          "internalType": "address",
          "name": "",
          "type": "address"
        }
      ],
      "name": "balances",
      "outputs": [
        {
          "internalType": "uint256",
          "name": "",
          "type": "uint256"
        }
      ],
      "stateMutability": "view",
      "type": "function"
    },
    {
      "inputs": [],
      "name": "deposit",
      "outputs": [],
      "stateMutability": "payable",
      "type": "function"
    },
    {
      "inputs": [],
      "name": "getBalance",
      "outputs": [
        {
          "internalType": "uint256",
          "name": "",
          "type": "uint256"
        }
      ],
      "stateMutability": "view",
      "type": "function"
    },
    {
      "inputs": [],
      "name": "owner",
      "outputs": [
        {
          "internalType": "address",
          "name": "",
          "type": "address"
        }
      ],
      "stateMutability": "view",
      "type": "function"
    },
    {
      "inputs": [],
      "name": "renounceOwnership",
      "outputs": [],
      "stateMutability": "nonpayable",
      "type": "function"
    },
    {
      "inputs": [
        {
          "internalType": "address",
          "name": "newOwner",
          "type": "address"
        }
      ],
      "name": "transferOwnership",
      "outputs": [],
      "stateMutability": "nonpayable",
      "type": "function"
    },
    {
      "inputs": [
        {
          "internalType": "uint256",
          "name": "amount",
          "type": "uint256"
        }
      ],
      "name": "withdraw",
      "outputs": [],
      "stateMutability": "nonpayable",
      "type": "function"
    }
  ],
  "bytecode": "0x608060405234801561001057600080fd5b5033600073ffffffffffffffffffffffffffffffffffffffff168173ffffffffffffffffffffffffffffffffffffffff16036100845760006040517f1e4fbdf700000000000000000000000000000000000000000000000000000000815260040161007b919061019e565b60405180910390fd5b6100938161009960201b60201c565b506101b9565b60008060009054906101000a900473ffffffffffffffffffffffffffffffffffffffff169050816000806101000a81548173ffffffffffffffffffffffffffffffffffffffff021916908373ffffffffffffffffffffffffffffffffffffffff1602179055508173ffffffffffffffffffffffffffffffffffffffff168173ffffffffffffffffffffffffffffffffffffffff167f8be0079c531659141344cd1fd0a4f28419497f9722a3daafe3b4186f6b6457e060405160405180910390a35050565b600073ffffffffffffffffffffffffffffffffffffffff82169050919050565b60006101888261015d565b9050919050565b6101988161017d565b82525050565b60006020820190506101b3600083018461018f565b92915050565b610aa1806101c86000396000f3fe6080604052600436106100705760003560e01c8063715018a61161004e578063715018a6146101065780638da5cb5b1461011d578063d0e30db014610148578063f2fde38b1461015257610070565b806312065fe01461007557806327e235e3146100a05780632e1a7d4d146100dd575b600080fd5b34801561008157600080fd5b5061008a61017b565b604051610097919061070b565b60405180910390f35b3480156100ac57600080fd5b506100c760048036038101906100c29190610789565b6101c2565b6040516100d4919061070b565b60405180910390f35b3480156100e957600080fd5b5061010460048036038101906100ff91906107e2565b6101da565b005b34801561011257600080fd5b5061011b6103f3565b005b34801561012957600080fd5b50610132610407565b60405161013f919061081e565b60405180910390f35b610150610430565b005b34801561015e57600080fd5b5061017960048036038101906101749190610789565b610519565b005b6000600160003373ffffffffffffffffffffffffffffffffffffffff1673ffffffffffffffffffffffffffffffffffffffff16815260200190815260200160002054905090565b60016020528060005260406000206000915090505481565b6000811161021d576040517f08c379a000000000000000000000000000000000000000000000000000000000815260040161021490610896565b60405180910390fd5b80600160003373ffffffffffffffffffffffffffffffffffffffff1673ffffffffffffffffffffffffffffffffffffffff16815260200190815260200160002054101561029f576040517f08c379a000000000000000000000000000000000000000000000000000000000815260040161029690610902565b60405180910390fd5b80600160003373ffffffffffffffffffffffffffffffffffffffff1673ffffffffffffffffffffffffffffffffffffffff16815260200190815260200160002060008282546102ee9190610951565b9250508190555060003373ffffffffffffffffffffffffffffffffffffffff168260405161031b906109b6565b60006040518083038185875af1925050503d8060008114610358576040519150601f19603f3d011682016040523d82523d6000602084013e61035d565b606091505b50509050806103a1576040517f08c379a000000000000000000000000000000000000000000000000000000000815260040161039890610a17565b60405180910390fd5b3373ffffffffffffffffffffffffffffffffffffffff167f884edad9ce6fa2440d8a54cc123490eb96d2768479d49ff9c7366125a9424364836040516103e7919061070b565b60405180910390a25050565b6103fb61059f565b6104056000610626565b565b60008060009054906101000a900473ffffffffffffffffffffffffffffffffffffffff16905090565b60003411610473576040517f08c379a000000000000000000000000000000000000000000000000000000000815260040161046a90610896565b60405180910390fd5b34600160003373ffffffffffffffffffffffffffffffffffffffff1673ffffffffffffffffffffffffffffffffffffffff16815260200190815260200160002060008282546104c29190610a37565b925050819055503373ffffffffffffffffffffffffffffffffffffffff167fe1fffcc4923d04b559f4d29a8bfc6cda04eb5b0d3c460751c2402c5c5cc9109c3460405161050f919061070b565b60405180910390a2565b61052161059f565b600073ffffffffffffffffffffffffffffffffffffffff168173ffffffffffffffffffffffffffffffffffffffff16036105935760006040517f1e4fbdf700000000000000000000000000000000000000000000000000000000815260040161058a919061081e565b60405180910390fd5b61059c81610626565b50565b6105a76106ea565b73ffffffffffffffffffffffffffffffffffffffff166105c5610407565b73ffffffffffffffffffffffffffffffffffffffff1614610624576105e86106ea565b6040517f118cdaa700000000000000000000000000000000000000000000000000000000815260040161061b919061081e565b60405180910390fd5b565b60008060009054906101000a900473ffffffffffffffffffffffffffffffffffffffff169050816000806101000a81548173ffffffffffffffffffffffffffffffffffffffff021916908373ffffffffffffffffffffffffffffffffffffffff1602179055508173ffffffffffffffffffffffffffffffffffffffff168173ffffffffffffffffffffffffffffffffffffffff167f8be0079c531659141344cd1fd0a4f28419497f9722a3daafe3b4186f6b6457e060405160405180910390a35050565b600033905090565b6000819050919050565b610705816106f2565b82525050565b600060208201905061072060008301846106fc565b92915050565b600080fd5b600073ffffffffffffffffffffffffffffffffffffffff82169050919050565b60006107568261072b565b9050919050565b6107668161074b565b811461077157600080fd5b50565b6000813590506107838161075d565b92915050565b60006020828403121561079f5761079e610726565b5b60006107ad84828501610774565b91505092915050565b6107bf816106f2565b81146107ca57600080fd5b50565b6000813590506107dc816107b6565b92915050565b6000602082840312156107f8576107f7610726565b5b6000610806848285016107cd565b91505092915050565b6108188161074b565b82525050565b6000602082019050610833600083018461080f565b92915050565b600082825260208201905092915050565b7f416d6f756e74206d7573742062652067726561746572207468616e2030000000600082015250565b6000610880601d83610839565b915061088b8261084a565b602082019050919050565b600060208201905081810360008301526108af81610873565b9050919050565b7f496e73756666696369656e742062616c616e6365000000000000000000000000600082015250565b60006108ec601483610839565b91506108f7826108b6565b602082019050919050565b6000602082019050818103600083015261091b816108df565b9050919050565b7f4e487b7100000000000000000000000000000000000000000000000000000000600052601160045260246000fd5b600061095c826106f2565b9150610967836106f2565b925082820390508181111561097f5761097e610922565b5b92915050565b600081905092915050565b50565b60006109a0600083610985565b91506109ab82610990565b600082019050919050565b60006109c182610993565b9150819050919050565b7f5472616e73666572206661696c65640000000000000000000000000000000000600082015250565b6000610a01600f83610839565b9150610a0c826109cb565b602082019050919050565b60006020820190508181036000830152610a30816109f4565b9050919050565b6000610a42826106f2565b9150610a4d836106f2565b9250828201905080821115610a6557610a64610922565b5b9291505056fea26469706673582212208ef8796b9e660449c1c651a01e934fb10b2a1823e5406ee91db29282dbbe5f7f64736f6c63430008140033",
  "linkReferences": {},
  "deployedLinkReferences": {}
}