{
  "_format": "hh-sol-artifact-1",
  "contractName": "USDT",
  "sourceName": "contracts/USDT.sol",
  "abi": [
    {
      "inputs": [],
      "stateMutability": "nonpayable",
      "type": "constructor"
    },
    {
      "inputs": [],
      "name": "ECDSAInvalidSignature",
      "type": "error"
    },
    {
      "inputs": [
        {
          "internalType": "uint256",
          "name": "length",
          "type": "uint256"
        }
      ],
      "name": "ECDSAInvalidSignatureLength",
      "type": "error"
    },
    {
      "inputs": [
        {
          "internalType": "bytes32",
          "name": "s",
          "type": "bytes32"
        }
      ],
      "name": "ECDSAInvalidSignatureS",
      "type": "error"
    },
    {
      "inputs": [
        {
          "internalType": "address",
          "name": "spender",
          "type": "address"
        },
        {
          "internalType": "uint256",
          "name": "allowance",
          "type": "uint256"
        },
        {
          "internalType": "uint256",
          "name": "needed",
          "type": "uint256"
        }
      ],
      "name": "ERC20InsufficientAllowance",
      "type": "error"
    },
    {
      "inputs": [
        {
          "internalType": "address",
          "name": "sender",
          "type": "address"
        },
        {
          "internalType": "uint256",
          "name": "balance",
          "type": "uint256"
        },
        {
          "internalType": "uint256",
          "name": "needed",
          "type": "uint256"
        }
      ],
      "name": "ERC20InsufficientBalance",
      "type": "error"
    },
    {
      "inputs": [
        {
          "internalType": "address",
          "name": "approver",
          "type": "address"
        }
      ],
      "name": "ERC20InvalidApprover",
      "type": "error"
    },
    {
      "inputs": [
        {
          "internalType": "address",
          "name": "receiver",
          "type": "address"
        }
      ],
      "name": "ERC20InvalidReceiver",
      "type": "error"
    },
    {
      "inputs": [
        {
          "internalType": "address",
          "name": "sender",
          "type": "address"
        }
      ],
      "name": "ERC20InvalidSender",
      "type": "error"
    },
    {
      "inputs": [
        {
          "internalType": "address",
          "name": "spender",
          "type": "address"
        }
      ],
      "name": "ERC20InvalidSpender",
      "type": "error"
    },
    {
      "inputs": [
        {
          "internalType": "uint256",
          "name": "deadline",
          "type": "uint256"
        }
      ],
      "name": "ERC2612ExpiredSignature",
      "type": "error"
    },
    {
      "inputs": [
        {
          "internalType": "address",
          "name": "signer",
          "type": "address"
        },
        {
          "internalType": "address",
          "name": "owner",
          "type": "address"
        }
      ],
      "name": "ERC2612InvalidSigner",
      "type": "error"
    },
    {
      "inputs": [
        {
          "internalType": "address",
          "name": "account",
          "type": "address"
        },
        {
          "internalType": "uint256",
          "name": "currentNonce",
          "type": "uint256"
        }
      ],
      "name": "InvalidAccountNonce",
      "type": "error"
    },
    {
      "inputs": [],
      "name": "InvalidShortString",
      "type": "error"
    },
    {
      "inputs": [
        {
          "internalType": "address",
          "name": "owner",
          "type": "address"
        }
      ],
      "name": "OwnableInvalidOwner",
      "type": "error"
    },
    {
      "inputs": [
        {
          "internalType": "address",
          "name": "account",
          "type": "address"
        }
      ],
      "name": "OwnableUnauthorizedAccount",
      "type": "error"
    },
    {
      "inputs": [
        {
          "internalType": "string",
          "name": "str",
          "type": "string"
        }
      ],
      "name": "StringTooLong",
      "type": "error"
    },
    {
      "anonymous": false,
      "inputs": [
        {
          "indexed": true,
          "internalType": "address",
          "name": "owner",
          "type": "address"
        },
        {
          "indexed": true,
          "internalType": "address",
          "name": "spender",
          "type": "address"
        },
        {
          "indexed": false,
          "internalType": "uint256",
          "name": "value",
          "type": "uint256"
        }
      ],
      "name": "Approval",
      "type": "event"
    },
    {
      "anonymous": false,
      "inputs": [],
      "name": "EIP712DomainChanged",
      "type": "event"
    },
    {
      "anonymous": false,
      "inputs": [
        {
          "indexed": true,
          "internalType": "address",
          "name": "previousOwner",
          "type": "address"
        },
        {
          "indexed": true,
          "internalType": "address",
          "name": "newOwner",
          "type": "address"
        }
      ],
      "name": "OwnershipTransferred",
      "type": "event"
    },
    {
      "anonymous": false,
      "inputs": [
        {
          "indexed": true,
          "internalType": "address",
          "name": "from",
          "type": "address"
        },
        {
          "indexed": true,
          "internalType": "address",
          "name": "to",
          "type": "address"
        },
        {
          "indexed": false,
          "internalType": "uint256",
          "name": "value",
          "type": "uint256"
        }
      ],
      "name": "Transfer",
      "type": "event"
    },
    {
      "inputs": [],
      "name": "DOMAIN_SEPARATOR",
      "outputs": [
        {
          "internalType": "bytes32",
          "name": "",
          "type": "bytes32"
        }
      ],
      "stateMutability": "view",
      "type": "function"
    },
    {
      "inputs": [],
      "name": "FEE_RECIPIENT",
      "outputs": [
        {
          "internalType": "address",
          "name": "",
          "type": "address"
        }
      ],
      "stateMutability": "view",
      "type": "function"
    },
    {
      "inputs": [],
      "name": "TRANSFER_FEE",
      "outputs": [
        {
          "internalType": "uint256",
          "name": "",
          "type": "uint256"
        }
      ],
      "stateMutability": "view",
      "type": "function"
    },
    {
      "inputs": [
        {
          "internalType": "address",
          "name": "owner",
          "type": "address"
        },
        {
          "internalType": "address",
          "name": "spender",
          "type": "address"
        }
      ],
      "name": "allowance",
      "outputs": [
        {
          "internalType": "uint256",
          "name": "",
          "type": "uint256"
        }
      ],
      "stateMutability": "view",
      "type": "function"
    },
    {
      "inputs": [
        {
          "internalType": "address",
          "name": "spender",
          "type": "address"
        },
        {
          "internalType": "uint256",
          "name": "value",
          "type": "uint256"
        }
      ],
      "name": "approve",
      "outputs": [
        {
          "internalType": "bool",
          "name": "",
          "type": "bool"
        }
      ],
      "stateMutability": "nonpayable",
      "type": "function"
    },
    {
      "inputs": [
        {
          "internalType": "address",
          "name": "account",
          "type": "address"
        }
      ],
      "name": "balanceOf",
      "outputs": [
        {
          "internalType": "uint256",
          "name": "",
          "type": "uint256"
        }
      ],
      "stateMutability": "view",
      "type": "function"
    },
    {
      "inputs": [],
      "name": "decimals",
      "outputs": [
        {
          "internalType": "uint8",
          "name": "",
          "type": "uint8"
        }
      ],
      "stateMutability": "view",
      "type": "function"
    },
    {
      "inputs": [],
      "name": "eip712Domain",
      "outputs": [
        {
          "internalType": "bytes1",
          "name": "fields",
          "type": "bytes1"
        },
        {
          "internalType": "string",
          "name": "name",
          "type": "string"
        },
        {
          "internalType": "string",
          "name": "version",
          "type": "string"
        },
        {
          "internalType": "uint256",
          "name": "chainId",
          "type": "uint256"
        },
        {
          "internalType": "address",
          "name": "verifyingContract",
          "type": "address"
        },
        {
          "internalType": "bytes32",
          "name": "salt",
          "type": "bytes32"
        },
        {
          "internalType": "uint256[]",
          "name": "extensions",
          "type": "uint256[]"
        }
      ],
      "stateMutability": "view",
      "type": "function"
    },
    {
      "inputs": [
        {
          "internalType": "address",
          "name": "to",
          "type": "address"
        },
        {
          "internalType": "uint256",
          "name": "amount",
          "type": "uint256"
        }
      ],
      "name": "mint",
      "outputs": [],
      "stateMutability": "nonpayable",
      "type": "function"
    },
    {
      "inputs": [],
      "name": "name",
      "outputs": [
        {
          "internalType": "string",
          "name": "",
          "type": "string"
        }
      ],
      "stateMutability": "view",
      "type": "function"
    },
    {
      "inputs": [
        {
          "internalType": "address",
          "name": "owner",
          "type": "address"
        }
      ],
      "name": "nonces",
      "outputs": [
        {
          "internalType": "uint256",
          "name": "",
          "type": "uint256"
        }
      ],
      "stateMutability": "view",
      "type": "function"
    },
    {
      "inputs": [],
      "name": "owner",
      "outputs": [
        {
          "internalType": "address",
          "name": "",
          "type": "address"
        }
      ],
      "stateMutability": "view",
      "type": "function"
    },
    {
      "inputs": [
        {
          "internalType": "address",
          "name": "owner",
          "type": "address"
        },
        {
          "internalType": "address",
          "name": "spender",
          "type": "address"
        },
        {
          "internalType": "uint256",
          "name": "value",
          "type": "uint256"
        },
        {
          "internalType": "uint256",
          "name": "deadline",
          "type": "uint256"
        },
        {
          "internalType": "uint8",
          "name": "v",
          "type": "uint8"
        },
        {
          "internalType": "bytes32",
          "name": "r",
          "type": "bytes32"
        },
        {
          "internalType": "bytes32",
          "name": "s",
          "type": "bytes32"
        }
      ],
      "name": "permit",
      "outputs": [],
      "stateMutability": "nonpayable",
      "type": "function"
    },
    {
      "inputs": [],
      "name": "renounceOwnership",
      "outputs": [],
      "stateMutability": "nonpayable",
      "type": "function"
    },
    {
      "inputs": [],
      "name": "symbol",
      "outputs": [
        {
          "internalType": "string",
          "name": "",
          "type": "string"
        }
      ],
      "stateMutability": "view",
      "type": "function"
    },
    {
      "inputs": [],
      "name": "totalSupply",
      "outputs": [
        {
          "internalType": "uint256",
          "name": "",
          "type": "uint256"
        }
      ],
      "stateMutability": "view",
      "type": "function"
    },
    {
      "inputs": [
        {
          "internalType": "address",
          "name": "to",
          "type": "address"
        },
        {
          "internalType": "uint256",
          "name": "amount",
          "type": "uint256"
        }
      ],
      "name": "transfer",
      "outputs": [
        {
          "internalType": "bool",
          "name": "",
          "type": "bool"
        }
      ],
      "stateMutability": "nonpayable",
      "type": "function"
    },
    {
      "inputs": [
        {
          "internalType": "address",
          "name": "from",
          "type": "address"
        },
        {
          "internalType": "address",
          "name": "to",
          "type": "address"
        },
        {
          "internalType": "uint256",
          "name": "amount",
          "type": "uint256"
        }
      ],
      "name": "transferFrom",
      "outputs": [
        {
          "internalType": "bool",
          "name": "",
          "type": "bool"
        }
      ],
      "stateMutability": "nonpayable",
      "type": "function"
    },
    {
      "inputs": [
        {
          "internalType": "address",
          "name": "newOwner",
          "type": "address"
        }
      ],
      "name": "transferOwnership",
      "outputs": [],
      "stateMutability": "nonpayable",
      "type": "function"
    }
  ],
  "bytecode": "0x6101606040523480156200001257600080fd5b50336040518060400160405280600a81526020017f5465746865722055534400000000000000000000000000000000000000000000815250806040518060400160405280600181526020017f31000000000000000000000000000000000000000000000000000000000000008152506040518060400160405280600a81526020017f54657468657220555344000000000000000000000000000000000000000000008152506040518060400160405280600481526020017f55534454000000000000000000000000000000000000000000000000000000008152508160039081620000fe9190620009c2565b508060049081620001109190620009c2565b505050620001296005836200029060201b90919060201c565b6101208181525050620001476006826200029060201b90919060201c565b6101408181525050818051906020012060e08181525050808051906020012061010081815250504660a0818152505062000186620002e860201b60201c565b608081815250503073ffffffffffffffffffffffffffffffffffffffff1660c08173ffffffffffffffffffffffffffffffffffffffff1681525050505050600073ffffffffffffffffffffffffffffffffffffffff168173ffffffffffffffffffffffffffffffffffffffff1603620002395760006040517f1e4fbdf700000000000000000000000000000000000000000000000000000000815260040162000230919062000aee565b60405180910390fd5b6200024a816200034560201b60201c565b506200028a33620002606200040b60201b60201c565b600a6200026e919062000c9b565b620f42406200027e919062000cec565b6200041460201b60201c565b62000faa565b6000602083511015620002b657620002ae83620004a160201b60201c565b9050620002e2565b82620002c8836200050e60201b60201c565b6000019081620002d99190620009c2565b5060ff60001b90505b92915050565b60007f8b73c3c69bb8fe3d512ecc4cf759cc79239f7b179b0ffacaa9a75d522b39400f60e0516101005146306040516020016200032a95949392919062000d63565b60405160208183030381529060405280519060200120905090565b6000600860009054906101000a900473ffffffffffffffffffffffffffffffffffffffff16905081600860006101000a81548173ffffffffffffffffffffffffffffffffffffffff021916908373ffffffffffffffffffffffffffffffffffffffff1602179055508173ffffffffffffffffffffffffffffffffffffffff168173ffffffffffffffffffffffffffffffffffffffff167f8be0079c531659141344cd1fd0a4f28419497f9722a3daafe3b4186f6b6457e060405160405180910390a35050565b60006012905090565b600073ffffffffffffffffffffffffffffffffffffffff168273ffffffffffffffffffffffffffffffffffffffff1603620004895760006040517fec442f0500000000000000000000000000000000000000000000000000000000815260040162000480919062000aee565b60405180910390fd5b6200049d600083836200051860201b60201c565b5050565b600080829050601f81511115620004f157826040517f305a27a9000000000000000000000000000000000000000000000000000000008152600401620004e8919062000e4f565b60405180910390fd5b805181620004ff9062000ea5565b60001c1760001b915050919050565b6000819050919050565b600073ffffffffffffffffffffffffffffffffffffffff168373ffffffffffffffffffffffffffffffffffffffff16036200056e57806002600082825462000561919062000f15565b9250508190555062000644565b60008060008573ffffffffffffffffffffffffffffffffffffffff1673ffffffffffffffffffffffffffffffffffffffff16815260200190815260200160002054905081811015620005fd578381836040517fe450d38c000000000000000000000000000000000000000000000000000000008152600401620005f49392919062000f50565b60405180910390fd5b8181036000808673ffffffffffffffffffffffffffffffffffffffff1673ffffffffffffffffffffffffffffffffffffffff16815260200190815260200160002081905550505b600073ffffffffffffffffffffffffffffffffffffffff168273ffffffffffffffffffffffffffffffffffffffff16036200068f5780600260008282540392505081905550620006dc565b806000808473ffffffffffffffffffffffffffffffffffffffff1673ffffffffffffffffffffffffffffffffffffffff168152602001908152602001600020600082825401925050819055505b8173ffffffffffffffffffffffffffffffffffffffff168373ffffffffffffffffffffffffffffffffffffffff167fddf252ad1be2c89b69c2b068fc378daa952ba7f163c4a11628f55a4df523b3ef836040516200073b919062000f8d565b60405180910390a3505050565b600081519050919050565b7f4e487b7100000000000000000000000000000000000000000000000000000000600052604160045260246000fd5b7f4e487b7100000000000000000000000000000000000000000000000000000000600052602260045260246000fd5b60006002820490506001821680620007ca57607f821691505b602082108103620007e057620007df62000782565b5b50919050565b60008190508160005260206000209050919050565b60006020601f8301049050919050565b600082821b905092915050565b6000600883026200084a7fffffffffffffffffffffffffffffffffffffffffffffffffffffffffffffffff826200080b565b6200085686836200080b565b95508019841693508086168417925050509392505050565b6000819050919050565b6000819050919050565b6000620008a36200089d62000897846200086e565b62000878565b6200086e565b9050919050565b6000819050919050565b620008bf8362000882565b620008d7620008ce82620008aa565b84845462000818565b825550505050565b600090565b620008ee620008df565b620008fb818484620008b4565b505050565b5b81811015620009235762000917600082620008e4565b60018101905062000901565b5050565b601f82111562000972576200093c81620007e6565b6200094784620007fb565b8101602085101562000957578190505b6200096f6200096685620007fb565b83018262000900565b50505b505050565b600082821c905092915050565b6000620009976000198460080262000977565b1980831691505092915050565b6000620009b2838362000984565b9150826002028217905092915050565b620009cd8262000748565b67ffffffffffffffff811115620009e957620009e862000753565b5b620009f58254620007b1565b62000a0282828562000927565b600060209050601f83116001811462000a3a576000841562000a25578287015190505b62000a318582620009a4565b86555062000aa1565b601f19841662000a4a86620007e6565b60005b8281101562000a745784890151825560018201915060208501945060208101905062000a4d565b8683101562000a94578489015162000a90601f89168262000984565b8355505b6001600288020188555050505b505050505050565b600073ffffffffffffffffffffffffffffffffffffffff82169050919050565b600062000ad68262000aa9565b9050919050565b62000ae88162000ac9565b82525050565b600060208201905062000b05600083018462000add565b92915050565b7f4e487b7100000000000000000000000000000000000000000000000000000000600052601160045260246000fd5b60008160011c9050919050565b6000808291508390505b600185111562000b995780860481111562000b715762000b7062000b0b565b5b600185161562000b815780820291505b808102905062000b918562000b3a565b945062000b51565b94509492505050565b60008262000bb4576001905062000c87565b8162000bc4576000905062000c87565b816001811462000bdd576002811462000be85762000c1e565b600191505062000c87565b60ff84111562000bfd5762000bfc62000b0b565b5b8360020a91508482111562000c175762000c1662000b0b565b5b5062000c87565b5060208310610133831016604e8410600b841016171562000c585782820a90508381111562000c525762000c5162000b0b565b5b62000c87565b62000c67848484600162000b47565b9250905081840481111562000c815762000c8062000b0b565b5b81810290505b9392505050565b600060ff82169050919050565b600062000ca8826200086e565b915062000cb58362000c8e565b925062000ce47fffffffffffffffffffffffffffffffffffffffffffffffffffffffffffffffff848462000ba2565b905092915050565b600062000cf9826200086e565b915062000d06836200086e565b925082820262000d16816200086e565b9150828204841483151762000d305762000d2f62000b0b565b5b5092915050565b6000819050919050565b62000d4c8162000d37565b82525050565b62000d5d816200086e565b82525050565b600060a08201905062000d7a600083018862000d41565b62000d89602083018762000d41565b62000d98604083018662000d41565b62000da7606083018562000d52565b62000db6608083018462000add565b9695505050505050565b600082825260208201905092915050565b60005b8381101562000df157808201518184015260208101905062000dd4565b60008484015250505050565b6000601f19601f8301169050919050565b600062000e1b8262000748565b62000e27818562000dc0565b935062000e3981856020860162000dd1565b62000e448162000dfd565b840191505092915050565b6000602082019050818103600083015262000e6b818462000e0e565b905092915050565b600081519050919050565b6000819050602082019050919050565b600062000e9c825162000d37565b80915050919050565b600062000eb28262000e73565b8262000ebe8462000e7e565b905062000ecb8162000e8e565b9250602082101562000f0e5762000f097fffffffffffffffffffffffffffffffffffffffffffffffffffffffffffffffff836020036008026200080b565b831692505b5050919050565b600062000f22826200086e565b915062000f2f836200086e565b925082820190508082111562000f4a5762000f4962000b0b565b5b92915050565b600060608201905062000f67600083018662000add565b62000f76602083018562000d52565b62000f85604083018462000d52565b949350505050565b600060208201905062000fa4600083018462000d52565b92915050565b60805160a05160c05160e0516101005161012051610140516120a0620010056000396000610e2701526000610dec0152600061133c0152600061131b01526000610b1801526000610b6e01526000610b9701526120a06000f3fe608060405234801561001057600080fd5b50600436106101215760003560e01c8063715018a6116100ad578063a9059cbb11610071578063a9059cbb14610302578063d505accf14610332578063dd62ed3e1461034e578063ebd090541461037e578063f2fde38b1461039c57610121565b8063715018a6146102685780637ecebe001461027257806384b0196e146102a25780638da5cb5b146102c657806395d89b41146102e457610121565b8063313ce567116100f4578063313ce567146101c257806336265192146101e05780633644e515146101fe57806340c10f191461021c57806370a082311461023857610121565b806306fdde0314610126578063095ea7b31461014457806318160ddd1461017457806323b872dd14610192575b600080fd5b61012e6103b8565b60405161013b9190611829565b60405180910390f35b61015e600480360381019061015991906118e4565b61044a565b60405161016b919061193f565b60405180910390f35b61017c61046d565b6040516101899190611969565b60405180910390f35b6101ac60048036038101906101a79190611984565b610477565b6040516101b9919061193f565b60405180910390f35b6101ca610504565b6040516101d791906119f3565b60405180910390f35b6101e861050d565b6040516101f59190611969565b60405180910390f35b610206610514565b6040516102139190611a27565b60405180910390f35b610236600480360381019061023191906118e4565b610523565b005b610252600480360381019061024d9190611a42565b610539565b60405161025f9190611969565b60405180910390f35b610270610581565b005b61028c60048036038101906102879190611a42565b610595565b6040516102999190611969565b60405180910390f35b6102aa6105a7565b6040516102bd9796959493929190611b77565b60405180910390f35b6102ce610651565b6040516102db9190611bfb565b60405180910390f35b6102ec61067b565b6040516102f99190611829565b60405180910390f35b61031c600480360381019061031791906118e4565b61070d565b604051610329919061193f565b60405180910390f35b61034c60048036038101906103479190611c6e565b610799565b005b61036860048036038101906103639190611d10565b6108e1565b6040516103759190611969565b60405180910390f35b610386610968565b6040516103939190611bfb565b60405180910390f35b6103b660048036038101906103b19190611a42565b610980565b005b6060600380546103c790611d7f565b80601f01602080910402602001604051908101604052809291908181526020018280546103f390611d7f565b80156104405780601f1061041557610100808354040283529160200191610440565b820191906000526020600020905b81548152906001019060200180831161042357829003601f168201915b5050505050905090565b600080610455610a06565b9050610462818585610a0e565b600191505092915050565b6000600254905090565b6000620f424082116104be576040517f08c379a00000000000000000000000000000000000000000000000000000000081526004016104b590611dfc565b60405180910390fd5b6104e0847370997970c51812dc3a010c7d01b50e0d17dc79c8620f4240610a20565b6104f98484620f4240856104f49190611e4b565b610a20565b600190509392505050565b60006012905090565b620f424081565b600061051e610b14565b905090565b61052b610bcb565b6105358282610c52565b5050565b60008060008373ffffffffffffffffffffffffffffffffffffffff1673ffffffffffffffffffffffffffffffffffffffff168152602001908152602001600020549050919050565b610589610bcb565b6105936000610cd4565b565b60006105a082610d9a565b9050919050565b6000606080600080600060606105bb610de3565b6105c3610e1e565b46306000801b600067ffffffffffffffff8111156105e4576105e3611e7f565b5b6040519080825280602002602001820160405280156106125781602001602082028036833780820191505090505b507f0f00000000000000000000000000000000000000000000000000000000000000959493929190965096509650965096509650965090919293949596565b6000600860009054906101000a900473ffffffffffffffffffffffffffffffffffffffff16905090565b60606004805461068a90611d7f565b80601f01602080910402602001604051908101604052809291908181526020018280546106b690611d7f565b80156107035780601f106106d857610100808354040283529160200191610703565b820191906000526020600020905b8154815290600101906020018083116106e657829003601f168201915b5050505050905090565b6000620f42408211610754576040517f08c379a000000000000000000000000000000000000000000000000000000000815260040161074b90611dfc565b60405180910390fd5b610776337370997970c51812dc3a010c7d01b50e0d17dc79c8620f4240610a20565b61078f3384620f42408561078a9190611e4b565b610a20565b6001905092915050565b834211156107de57836040517f627913020000000000000000000000000000000000000000000000000000000081526004016107d59190611969565b60405180910390fd5b60007f6e71edae12b1b97f4d1f60370fef10105fa2faae0126114a169c64845d6126c988888861080d8c610e59565b8960405160200161082396959493929190611eae565b604051602081830303815290604052805190602001209050600061084682610eb0565b9050600061085682878787610eca565b90508973ffffffffffffffffffffffffffffffffffffffff168173ffffffffffffffffffffffffffffffffffffffff16146108ca57808a6040517f4b800e460000000000000000000000000000000000000000000000000000000081526004016108c1929190611f0f565b60405180910390fd5b6108d58a8a8a610a0e565b50505050505050505050565b6000600160008473ffffffffffffffffffffffffffffffffffffffff1673ffffffffffffffffffffffffffffffffffffffff16815260200190815260200160002060008373ffffffffffffffffffffffffffffffffffffffff1673ffffffffffffffffffffffffffffffffffffffff16815260200190815260200160002054905092915050565b7370997970c51812dc3a010c7d01b50e0d17dc79c881565b610988610bcb565b600073ffffffffffffffffffffffffffffffffffffffff168173ffffffffffffffffffffffffffffffffffffffff16036109fa5760006040517f1e4fbdf70000000000000000000000000000000000000000000000000000000081526004016109f19190611bfb565b60405180910390fd5b610a0381610cd4565b50565b600033905090565b610a1b8383836001610efa565b505050565b600073ffffffffffffffffffffffffffffffffffffffff168373ffffffffffffffffffffffffffffffffffffffff1603610a925760006040517f96c6fd1e000000000000000000000000000000000000000000000000000000008152600401610a899190611bfb565b60405180910390fd5b600073ffffffffffffffffffffffffffffffffffffffff168273ffffffffffffffffffffffffffffffffffffffff1603610b045760006040517fec442f05000000000000000000000000000000000000000000000000000000008152600401610afb9190611bfb565b60405180910390fd5b610b0f8383836110d1565b505050565b60007f000000000000000000000000000000000000000000000000000000000000000073ffffffffffffffffffffffffffffffffffffffff163073ffffffffffffffffffffffffffffffffffffffff16148015610b9057507f000000000000000000000000000000000000000000000000000000000000000046145b15610bbd577f00000000000000000000000000000000000000000000000000000000000000009050610bc8565b610bc56112f6565b90505b90565b610bd3610a06565b73ffffffffffffffffffffffffffffffffffffffff16610bf1610651565b73ffffffffffffffffffffffffffffffffffffffff1614610c5057610c14610a06565b6040517f118cdaa7000000000000000000000000000000000000000000000000000000008152600401610c479190611bfb565b60405180910390fd5b565b600073ffffffffffffffffffffffffffffffffffffffff168273ffffffffffffffffffffffffffffffffffffffff1603610cc45760006040517fec442f05000000000000000000000000000000000000000000000000000000008152600401610cbb9190611bfb565b60405180910390fd5b610cd0600083836110d1565b5050565b6000600860009054906101000a900473ffffffffffffffffffffffffffffffffffffffff16905081600860006101000a81548173ffffffffffffffffffffffffffffffffffffffff021916908373ffffffffffffffffffffffffffffffffffffffff1602179055508173ffffffffffffffffffffffffffffffffffffffff168173ffffffffffffffffffffffffffffffffffffffff167f8be0079c531659141344cd1fd0a4f28419497f9722a3daafe3b4186f6b6457e060405160405180910390a35050565b6000600760008373ffffffffffffffffffffffffffffffffffffffff1673ffffffffffffffffffffffffffffffffffffffff168152602001908152602001600020549050919050565b6060610e1960057f000000000000000000000000000000000000000000000000000000000000000061138c90919063ffffffff16565b905090565b6060610e5460067f000000000000000000000000000000000000000000000000000000000000000061138c90919063ffffffff16565b905090565b6000600760008373ffffffffffffffffffffffffffffffffffffffff1673ffffffffffffffffffffffffffffffffffffffff1681526020019081526020016000206000815480929190600101919050559050919050565b6000610ec3610ebd610b14565b8361143c565b9050919050565b600080600080610edc8888888861147d565b925092509250610eec8282611571565b829350505050949350505050565b600073ffffffffffffffffffffffffffffffffffffffff168473ffffffffffffffffffffffffffffffffffffffff1603610f6c5760006040517fe602df05000000000000000000000000000000000000000000000000000000008152600401610f639190611bfb565b60405180910390fd5b600073ffffffffffffffffffffffffffffffffffffffff168373ffffffffffffffffffffffffffffffffffffffff1603610fde5760006040517f94280d62000000000000000000000000000000000000000000000000000000008152600401610fd59190611bfb565b60405180910390fd5b81600160008673ffffffffffffffffffffffffffffffffffffffff1673ffffffffffffffffffffffffffffffffffffffff16815260200190815260200160002060008573ffffffffffffffffffffffffffffffffffffffff1673ffffffffffffffffffffffffffffffffffffffff1681526020019081526020016000208190555080156110cb578273ffffffffffffffffffffffffffffffffffffffff168473ffffffffffffffffffffffffffffffffffffffff167f8c5be1e5ebec7d5bd14f71427d1e84f3dd0314c0f7b2291e5b200ac8c7c3b925846040516110c29190611969565b60405180910390a35b50505050565b600073ffffffffffffffffffffffffffffffffffffffff168373ffffffffffffffffffffffffffffffffffffffff16036111235780600260008282546111179190611f38565b925050819055506111f6565b60008060008573ffffffffffffffffffffffffffffffffffffffff1673ffffffffffffffffffffffffffffffffffffffff168152602001908152602001600020549050818110156111af578381836040517fe450d38c0000000000000000000000000000000000000000000000000000000081526004016111a693929190611f6c565b60405180910390fd5b8181036000808673ffffffffffffffffffffffffffffffffffffffff1673ffffffffffffffffffffffffffffffffffffffff16815260200190815260200160002081905550505b600073ffffffffffffffffffffffffffffffffffffffff168273ffffffffffffffffffffffffffffffffffffffff160361123f578060026000828254039250508190555061128c565b806000808473ffffffffffffffffffffffffffffffffffffffff1673ffffffffffffffffffffffffffffffffffffffff168152602001908152602001600020600082825401925050819055505b8173ffffffffffffffffffffffffffffffffffffffff168373ffffffffffffffffffffffffffffffffffffffff167fddf252ad1be2c89b69c2b068fc378daa952ba7f163c4a11628f55a4df523b3ef836040516112e99190611969565b60405180910390a3505050565b60007f8b73c3c69bb8fe3d512ecc4cf759cc79239f7b179b0ffacaa9a75d522b39400f7f00000000000000000000000000000000000000000000000000000000000000007f00000000000000000000000000000000000000000000000000000000000000004630604051602001611371959493929190611fa3565b60405160208183030381529060405280519060200120905090565b606060ff60001b83146113a9576113a2836116d5565b9050611436565b8180546113b590611d7f565b80601f01602080910402602001604051908101604052809291908181526020018280546113e190611d7f565b801561142e5780601f106114035761010080835404028352916020019161142e565b820191906000526020600020905b81548152906001019060200180831161141157829003601f168201915b505050505090505b92915050565b60006040517f190100000000000000000000000000000000000000000000000000000000000081528360028201528260228201526042812091505092915050565b60008060007f7fffffffffffffffffffffffffffffff5d576e7357a4501ddfe92f46681b20a08460001c11156114bd576000600385925092509250611567565b6000600188888888604051600081526020016040526040516114e29493929190611ff6565b6020604051602081039080840390855afa158015611504573d6000803e3d6000fd5b505050602060405103519050600073ffffffffffffffffffffffffffffffffffffffff168173ffffffffffffffffffffffffffffffffffffffff160361155857600060016000801b93509350935050611567565b8060008060001b935093509350505b9450945094915050565b600060038111156115855761158461203b565b5b8260038111156115985761159761203b565b5b03156116d157600160038111156115b2576115b161203b565b5b8260038111156115c5576115c461203b565b5b036115fc576040517ff645eedf00000000000000000000000000000000000000000000000000000000815260040160405180910390fd5b600260038111156116105761160f61203b565b5b8260038111156116235761162261203b565b5b03611668578060001c6040517ffce698f700000000000000000000000000000000000000000000000000000000815260040161165f9190611969565b60405180910390fd5b60038081111561167b5761167a61203b565b5b82600381111561168e5761168d61203b565b5b036116d057806040517fd78bce0c0000000000000000000000000000000000000000000000000000000081526004016116c79190611a27565b60405180910390fd5b5b5050565b606060006116e283611749565b90506000602067ffffffffffffffff81111561170157611700611e7f565b5b6040519080825280601f01601f1916602001820160405280156117335781602001600182028036833780820191505090505b5090508181528360208201528092505050919050565b60008060ff8360001c169050601f811115611790576040517fb3512b0c00000000000000000000000000000000000000000000000000000000815260040160405180910390fd5b80915050919050565b600081519050919050565b600082825260208201905092915050565b60005b838110156117d35780820151818401526020810190506117b8565b60008484015250505050565b6000601f19601f8301169050919050565b60006117fb82611799565b61180581856117a4565b93506118158185602086016117b5565b61181e816117df565b840191505092915050565b6000602082019050818103600083015261184381846117f0565b905092915050565b600080fd5b600073ffffffffffffffffffffffffffffffffffffffff82169050919050565b600061187b82611850565b9050919050565b61188b81611870565b811461189657600080fd5b50565b6000813590506118a881611882565b92915050565b6000819050919050565b6118c1816118ae565b81146118cc57600080fd5b50565b6000813590506118de816118b8565b92915050565b600080604083850312156118fb576118fa61184b565b5b600061190985828601611899565b925050602061191a858286016118cf565b9150509250929050565b60008115159050919050565b61193981611924565b82525050565b60006020820190506119546000830184611930565b92915050565b611963816118ae565b82525050565b600060208201905061197e600083018461195a565b92915050565b60008060006060848603121561199d5761199c61184b565b5b60006119ab86828701611899565b93505060206119bc86828701611899565b92505060406119cd868287016118cf565b9150509250925092565b600060ff82169050919050565b6119ed816119d7565b82525050565b6000602082019050611a0860008301846119e4565b92915050565b6000819050919050565b611a2181611a0e565b82525050565b6000602082019050611a3c6000830184611a18565b92915050565b600060208284031215611a5857611a5761184b565b5b6000611a6684828501611899565b91505092915050565b60007fff0000000000000000000000000000000000000000000000000000000000000082169050919050565b611aa481611a6f565b82525050565b611ab381611870565b82525050565b600081519050919050565b600082825260208201905092915050565b6000819050602082019050919050565b611aee816118ae565b82525050565b6000611b008383611ae5565b60208301905092915050565b6000602082019050919050565b6000611b2482611ab9565b611b2e8185611ac4565b9350611b3983611ad5565b8060005b83811015611b6a578151611b518882611af4565b9750611b5c83611b0c565b925050600181019050611b3d565b5085935050505092915050565b600060e082019050611b8c600083018a611a9b565b8181036020830152611b9e81896117f0565b90508181036040830152611bb281886117f0565b9050611bc1606083018761195a565b611bce6080830186611aaa565b611bdb60a0830185611a18565b81810360c0830152611bed8184611b19565b905098975050505050505050565b6000602082019050611c106000830184611aaa565b92915050565b611c1f816119d7565b8114611c2a57600080fd5b50565b600081359050611c3c81611c16565b92915050565b611c4b81611a0e565b8114611c5657600080fd5b50565b600081359050611c6881611c42565b92915050565b600080600080600080600060e0888a031215611c8d57611c8c61184b565b5b6000611c9b8a828b01611899565b9750506020611cac8a828b01611899565b9650506040611cbd8a828b016118cf565b9550506060611cce8a828b016118cf565b9450506080611cdf8a828b01611c2d565b93505060a0611cf08a828b01611c59565b92505060c0611d018a828b01611c59565b91505092959891949750929550565b60008060408385031215611d2757611d2661184b565b5b6000611d3585828601611899565b9250506020611d4685828601611899565b9150509250929050565b7f4e487b7100000000000000000000000000000000000000000000000000000000600052602260045260246000fd5b60006002820490506001821680611d9757607f821691505b602082108103611daa57611da9611d50565b5b50919050565b7f416d6f756e74206d7573742062652067726561746572207468616e2066656500600082015250565b6000611de6601f836117a4565b9150611df182611db0565b602082019050919050565b60006020820190508181036000830152611e1581611dd9565b9050919050565b7f4e487b7100000000000000000000000000000000000000000000000000000000600052601160045260246000fd5b6000611e56826118ae565b9150611e61836118ae565b9250828203905081811115611e7957611e78611e1c565b5b92915050565b7f4e487b7100000000000000000000000000000000000000000000000000000000600052604160045260246000fd5b600060c082019050611ec36000830189611a18565b611ed06020830188611aaa565b611edd6040830187611aaa565b611eea606083018661195a565b611ef7608083018561195a565b611f0460a083018461195a565b979650505050505050565b6000604082019050611f246000830185611aaa565b611f316020830184611aaa565b9392505050565b6000611f43826118ae565b9150611f4e836118ae565b9250828201905080821115611f6657611f65611e1c565b5b92915050565b6000606082019050611f816000830186611aaa565b611f8e602083018561195a565b611f9b604083018461195a565b949350505050565b600060a082019050611fb86000830188611a18565b611fc56020830187611a18565b611fd26040830186611a18565b611fdf606083018561195a565b611fec6080830184611aaa565b9695505050505050565b600060808201905061200b6000830187611a18565b61201860208301866119e4565b6120256040830185611a18565b6120326060830184611a18565b95945050505050565b7f4e487b7100000000000000000000000000000000000000000000000000000000600052602160045260246000fdfea2646970667358221220e36f864b327e40d0c38ffe8769df4935fd3746f2b0d435d2fdc070210a0aa74264736f6c63430008140033",
  "linkReferences": {},
  "deployedLinkReferences": {}
}