{
  "_format": "hh-sol-artifact-1",
  "contractName": "Deposit",
  "sourceName": "contracts/Deposit.sol",
  "abi": [
    {
      "inputs": [
        {
          "internalType": "address",
          "name": "_usdtAddress",
          "type": "address"
        }
      ],
      "stateMutability": "nonpayable",
      "type": "constructor"
    },
    {
      "inputs": [
        {
          "internalType": "address",
          "name": "owner",
          "type": "address"
        }
      ],
      "name": "OwnableInvalidOwner",
      "type": "error"
    },
    {
      "inputs": [
        {
          "internalType": "address",
          "name": "account",
          "type": "address"
        }
      ],
      "name": "OwnableUnauthorizedAccount",
      "type": "error"
    },
    {
      "anonymous": false,
      "inputs": [
        {
          "indexed": true,
          "internalType": "address",
          "name": "user",
          "type": "address"
        },
        {
          "indexed": false,
          "internalType": "uint256",
          "name": "amount",
          "type": "uint256"
        }
      ],
      "name": "Deposited",
      "type": "event"
    },
    {
      "anonymous": false,
      "inputs": [
        {
          "indexed": true,
          "internalType": "address",
          "name": "previousOwner",
          "type": "address"
        },
        {
          "indexed": true,
          "internalType": "address",
          "name": "newOwner",
          "type": "address"
        }
      ],
      "name": "OwnershipTransferred",
      "type": "event"
    },
    {
      "anonymous": false,
      "inputs": [
        {
          "indexed": true,
          "internalType": "address",
          "name": "user",
          "type": "address"
        },
        {
          "indexed": false,
          "internalType": "uint256",
          "name": "amount",
          "type": "uint256"
        }
      ],
      "name": "Withdrawn",
      "type": "event"
    },
    {
      "inputs": [
        {
          "internalType": "uint256",
          "name": "amount",
          "type": "uint256"
        }
      ],
      "name": "deposit",
      "outputs": [],
      "stateMutability": "nonpayable",
      "type": "function"
    },
    {
      "inputs": [],
      "name": "owner",
      "outputs": [
        {
          "internalType": "address",
          "name": "",
          "type": "address"
        }
      ],
      "stateMutability": "view",
      "type": "function"
    },
    {
      "inputs": [],
      "name": "renounceOwnership",
      "outputs": [],
      "stateMutability": "nonpayable",
      "type": "function"
    },
    {
      "inputs": [
        {
          "internalType": "address",
          "name": "newOwner",
          "type": "address"
        }
      ],
      "name": "transferOwnership",
      "outputs": [],
      "stateMutability": "nonpayable",
      "type": "function"
    },
    {
      "inputs": [],
      "name": "usdt",
      "outputs": [
        {
          "internalType": "contract IERC20",
          "name": "",
          "type": "address"
        }
      ],
      "stateMutability": "view",
      "type": "function"
    },
    {
      "inputs": [
        {
          "internalType": "address",
          "name": "to",
          "type": "address"
        },
        {
          "internalType": "uint256",
          "name": "amount",
          "type": "uint256"
        }
      ],
      "name": "withdraw",
      "outputs": [],
      "stateMutability": "nonpayable",
      "type": "function"
    }
  ],
  "bytecode": "0x60806040523480156200001157600080fd5b5060405162000cb838038062000cb8833981810160405281019062000037919062000235565b33600073ffffffffffffffffffffffffffffffffffffffff168173ffffffffffffffffffffffffffffffffffffffff1603620000ad5760006040517f1e4fbdf7000000000000000000000000000000000000000000000000000000008152600401620000a4919062000278565b60405180910390fd5b620000be816200010760201b60201c565b5080600160006101000a81548173ffffffffffffffffffffffffffffffffffffffff021916908373ffffffffffffffffffffffffffffffffffffffff1602179055505062000295565b60008060009054906101000a900473ffffffffffffffffffffffffffffffffffffffff169050816000806101000a81548173ffffffffffffffffffffffffffffffffffffffff021916908373ffffffffffffffffffffffffffffffffffffffff1602179055508173ffffffffffffffffffffffffffffffffffffffff168173ffffffffffffffffffffffffffffffffffffffff167f8be0079c531659141344cd1fd0a4f28419497f9722a3daafe3b4186f6b6457e060405160405180910390a35050565b600080fd5b600073ffffffffffffffffffffffffffffffffffffffff82169050919050565b6000620001fd82620001d0565b9050919050565b6200020f81620001f0565b81146200021b57600080fd5b50565b6000815190506200022f8162000204565b92915050565b6000602082840312156200024e576200024d620001cb565b5b60006200025e848285016200021e565b91505092915050565b6200027281620001f0565b82525050565b60006020820190506200028f600083018462000267565b92915050565b610a1380620002a56000396000f3fe608060405234801561001057600080fd5b50600436106100625760003560e01c80632f48ab7d14610067578063715018a6146100855780638da5cb5b1461008f578063b6b55f25146100ad578063f2fde38b146100c9578063f3fef3a3146100e5575b600080fd5b61006f610101565b60405161007c91906106ad565b60405180910390f35b61008d610127565b005b61009761013b565b6040516100a491906106e9565b60405180910390f35b6100c760048036038101906100c2919061073f565b610164565b005b6100e360048036038101906100de9190610798565b6102d9565b005b6100ff60048036038101906100fa91906107c5565b61035f565b005b600160009054906101000a900473ffffffffffffffffffffffffffffffffffffffff1681565b61012f6104db565b6101396000610562565b565b60008060009054906101000a900473ffffffffffffffffffffffffffffffffffffffff16905090565b600081116101a7576040517f08c379a000000000000000000000000000000000000000000000000000000000815260040161019e90610862565b60405180910390fd5b600160009054906101000a900473ffffffffffffffffffffffffffffffffffffffff1673ffffffffffffffffffffffffffffffffffffffff166323b872dd3330846040518463ffffffff1660e01b815260040161020693929190610891565b6020604051808303816000875af1158015610225573d6000803e3d6000fd5b505050506040513d601f19601f820116820180604052508101906102499190610900565b610288576040517f08c379a000000000000000000000000000000000000000000000000000000000815260040161027f90610979565b60405180910390fd5b3373ffffffffffffffffffffffffffffffffffffffff167f2da466a7b24304f47e87fa2e1e5a81b9831ce54fec19055ce277ca2f39ba42c4826040516102ce9190610999565b60405180910390a250565b6102e16104db565b600073ffffffffffffffffffffffffffffffffffffffff168173ffffffffffffffffffffffffffffffffffffffff16036103535760006040517f1e4fbdf700000000000000000000000000000000000000000000000000000000815260040161034a91906106e9565b60405180910390fd5b61035c81610562565b50565b6103676104db565b600081116103aa576040517f08c379a00000000000000000000000000000000000000000000000000000000081526004016103a190610862565b60405180910390fd5b600160009054906101000a900473ffffffffffffffffffffffffffffffffffffffff1673ffffffffffffffffffffffffffffffffffffffff1663a9059cbb83836040518363ffffffff1660e01b81526004016104079291906109b4565b6020604051808303816000875af1158015610426573d6000803e3d6000fd5b505050506040513d601f19601f8201168201806040525081019061044a9190610900565b610489576040517f08c379a000000000000000000000000000000000000000000000000000000000815260040161048090610979565b60405180910390fd5b8173ffffffffffffffffffffffffffffffffffffffff167f7084f5476618d8e60b11ef0d7d3f06914655adb8793e28ff7f018d4c76d505d5826040516104cf9190610999565b60405180910390a25050565b6104e3610626565b73ffffffffffffffffffffffffffffffffffffffff1661050161013b565b73ffffffffffffffffffffffffffffffffffffffff161461056057610524610626565b6040517f118cdaa700000000000000000000000000000000000000000000000000000000815260040161055791906106e9565b60405180910390fd5b565b60008060009054906101000a900473ffffffffffffffffffffffffffffffffffffffff169050816000806101000a81548173ffffffffffffffffffffffffffffffffffffffff021916908373ffffffffffffffffffffffffffffffffffffffff1602179055508173ffffffffffffffffffffffffffffffffffffffff168173ffffffffffffffffffffffffffffffffffffffff167f8be0079c531659141344cd1fd0a4f28419497f9722a3daafe3b4186f6b6457e060405160405180910390a35050565b600033905090565b600073ffffffffffffffffffffffffffffffffffffffff82169050919050565b6000819050919050565b600061067361066e6106698461062e565b61064e565b61062e565b9050919050565b600061068582610658565b9050919050565b60006106978261067a565b9050919050565b6106a78161068c565b82525050565b60006020820190506106c2600083018461069e565b92915050565b60006106d38261062e565b9050919050565b6106e3816106c8565b82525050565b60006020820190506106fe60008301846106da565b92915050565b600080fd5b6000819050919050565b61071c81610709565b811461072757600080fd5b50565b60008135905061073981610713565b92915050565b60006020828403121561075557610754610704565b5b60006107638482850161072a565b91505092915050565b610775816106c8565b811461078057600080fd5b50565b6000813590506107928161076c565b92915050565b6000602082840312156107ae576107ad610704565b5b60006107bc84828501610783565b91505092915050565b600080604083850312156107dc576107db610704565b5b60006107ea85828601610783565b92505060206107fb8582860161072a565b9150509250929050565b600082825260208201905092915050565b7f416d6f756e74206d7573742062652067726561746572207468616e2030000000600082015250565b600061084c601d83610805565b915061085782610816565b602082019050919050565b6000602082019050818103600083015261087b8161083f565b9050919050565b61088b81610709565b82525050565b60006060820190506108a660008301866106da565b6108b360208301856106da565b6108c06040830184610882565b949350505050565b60008115159050919050565b6108dd816108c8565b81146108e857600080fd5b50565b6000815190506108fa816108d4565b92915050565b60006020828403121561091657610915610704565b5b6000610924848285016108eb565b91505092915050565b7f5472616e73666572206661696c65640000000000000000000000000000000000600082015250565b6000610963600f83610805565b915061096e8261092d565b602082019050919050565b6000602082019050818103600083015261099281610956565b9050919050565b60006020820190506109ae6000830184610882565b92915050565b60006040820190506109c960008301856106da565b6109d66020830184610882565b939250505056fea264697066735822122023a0a4b0b83c93f531e1d38c187b61cb9c31f3ac7e4c240934756f52f590b9e664736f6c63430008140033",
  "linkReferences": {},
  "deployedLinkReferences": {}
}